{
  "_format": "hh3-artifact-1",
  "contractName": "FundMe",
  "sourceName": "contracts/FundMe.sol",
  "abi": [
    {
      "inputs": [
        {
          "internalType": "address",
          "name": "priceFeedAddress",
          "type": "address"
        }
      ],
      "stateMutability": "nonpayable",
      "type": "constructor"
    },
    {
      "inputs": [],
      "name": "NotOwner",
      "type": "error"
    },
    {
      "stateMutability": "payable",
      "type": "fallback"
    },
    {
      "inputs": [],
      "name": "MINIMUM_USD",
      "outputs": [
        {
          "internalType": "uint256",
          "name": "",
          "type": "uint256"
        }
      ],
      "stateMutability": "view",
      "type": "function"
    },
    {
      "inputs": [
        {
          "internalType": "address",
          "name": "",
          "type": "address"
        }
      ],
      "name": "addressToAmountFunded",
      "outputs": [
        {
          "internalType": "uint256",
          "name": "",
          "type": "uint256"
        }
      ],
      "stateMutability": "view",
      "type": "function"
    },
    {
      "inputs": [],
      "name": "fund",
      "outputs": [],
      "stateMutability": "payable",
      "type": "function"
    },
    {
      "inputs": [
        {
          "internalType": "uint256",
          "name": "",
          "type": "uint256"
        }
      ],
      "name": "funders",
      "outputs": [
        {
          "internalType": "address",
          "name": "",
          "type": "address"
        }
      ],
      "stateMutability": "view",
      "type": "function"
    },
    {
      "inputs": [],
      "name": "i_owner",
      "outputs": [
        {
          "internalType": "address",
          "name": "",
          "type": "address"
        }
      ],
      "stateMutability": "view",
      "type": "function"
    },
    {
      "inputs": [],
      "name": "i_priceFeed",
      "outputs": [
        {
          "internalType": "contract AggregatorV3Interface",
          "name": "",
          "type": "address"
        }
      ],
      "stateMutability": "view",
      "type": "function"
    },
    {
      "inputs": [],
      "name": "withdraw",
      "outputs": [],
      "stateMutability": "nonpayable",
      "type": "function"
    },
    {
      "stateMutability": "payable",
      "type": "receive"
    }
  ],
  "bytecode": "0x60c060405234801561000f575f5ffd5b506040516108dc3803806108dc83398101604081905261002e91610043565b336080526001600160a01b031660a052610070565b5f60208284031215610053575f5ffd5b81516001600160a01b0381168114610069575f5ffd5b9392505050565b60805160a05161083d61009f5f395f8181610109015261019c01525f81816101540152610283015261083d5ff3fe608060405260043610610073575f3560e01c8063957b89561161004d578063957b8956146100f8578063b60d428814610082578063dba6335f14610143578063dc0d3dff1461017657610082565b80633ccfd60b1461008a5780633e47d6f31461009e5780636b69a592146100dc57610082565b3661008257610080610195565b005b610080610195565b348015610095575f5ffd5b50610080610278565b3480156100a9575f5ffd5b506100c96100b8366004610507565b60016020525f908152604090205481565b6040519081526020015b60405180910390f35b3480156100e7575f5ffd5b506100c96802b5e3af16b188000081565b348015610103575f5ffd5b5061012b7f000000000000000000000000000000000000000000000000000000000000000081565b6040516001600160a01b0390911681526020016100d3565b34801561014e575f5ffd5b5061012b7f000000000000000000000000000000000000000000000000000000000000000081565b348015610181575f5ffd5b5061012b610190366004610534565b6103b2565b5f6101c0347f00000000000000000000000000000000000000000000000000000000000000006103d9565b90506802b5e3af16b18800008110156102165760405162461bcd60e51b81526020600482015260136024820152724469646e27742073656e6420656e6f7567682160681b60448201526064015b60405180910390fd5b5f8054600181810183557f290decd9548b62a8d60345a988386fc84ba6bc95484008f6362f93160ef3e56390910180546001600160a01b03191633908117909155825260205260408120805434929061027090849061055f565b909155505050565b336001600160a01b037f000000000000000000000000000000000000000000000000000000000000000016146102c1576040516330cd747160e01b815260040160405180910390fd5b5f5b5f5481101561030e575f60015f5f84815481106102e2576102e2610572565b5f9182526020808320909101546001600160a01b031683528201929092526040019020556001016102c3565b50604080515f8082526020820190925261032890826105b1565b506040515f90339047908381818185875af1925050503d805f8114610368576040519150601f19603f3d011682016040523d82523d5f602084013e61036d565b606091505b50509050806103af5760405162461bcd60e51b815260206004820152600e60248201526d11985a5b1959081d1bc818d85b1b60921b604482015260640161020d565b50565b5f81815481106103c0575f80fd5b5f918252602090912001546001600160a01b0316905081565b5f5f6103e48361040f565b90505f670de0b6b3a76400006103fa868461059a565b610404919061065b565b925050505b92915050565b5f5f826001600160a01b031663313ce5676040518163ffffffff1660e01b8152600401602060405180830381865afa15801561044d573d5f5f3e3d5ffd5b505050506040513d601f19601f82011682018060405250810190610471919061067a565b60ff1690505f836001600160a01b031663feaf968c6040518163ffffffff1660e01b815260040160a060405180830381865afa1580156104b3573d5f5f3e3d5ffd5b505050506040513d601f19601f820116820180604052508101906104d791906106b8565b5050509150508160126104ea9190610706565b6104f590600a6107fc565b6104ff908261059a565b949350505050565b5f60208284031215610517575f5ffd5b81356001600160a01b038116811461052d575f5ffd5b9392505050565b5f60208284031215610544575f5ffd5b5035919050565b634e487b7160e01b5f52601160045260245ffd5b808201808211156104095761040961054b565b634e487b7160e01b5f52603260045260245ffd5b634e487b7160e01b5f52604160045260245ffd5b80820281158282048414176104095761040961054b565b815167ffffffffffffffff8111156105cb576105cb610586565b680100000000000000008111156105e4576105e4610586565b81548183558082101561061857825f528160205f20018282035f5b81811015610614575f838201556001016105ff565b5050505b506020830161062c835f9081526020902090565b5f5b838110156106535782516001600160a01b03168183015560209092019160010161062e565b505050505050565b5f8261067557634e487b7160e01b5f52601260045260245ffd5b500490565b5f6020828403121561068a575f5ffd5b815160ff8116811461052d575f5ffd5b805169ffffffffffffffffffff811681146106b3575f5ffd5b919050565b5f5f5f5f5f60a086880312156106cc575f5ffd5b6106d58661069a565b602087015160408801516060890151929750909550935091506106fa6080870161069a565b90509295509295909350565b818103818111156104095761040961054b565b6001815b6001841115610754578085048111156107385761073861054b565b600184161561074657908102905b60019390931c92800261071d565b935093915050565b5f8261076a57506001610409565b8161077657505f610409565b816001811461078c5760028114610796576107b2565b6001915050610409565b60ff8411156107a7576107a761054b565b50506001821b610409565b5060208310610133831016604e8410600b84101617156107d5575081810a610409565b6107e15f198484610719565b805f19048211156107f4576107f461054b565b029392505050565b5f61052d838361075c56fea264697066735822122007cc89eb46c62e2465baef646b43fd7b55e096d1708b7879d14e497bfa95e11b64736f6c63430008210033",
  "linkReferences": {},
  "deployedLinkReferences": {},
  "immutableReferences": {
    "67": [
      {
        "length": 32,
        "start": 340
      },
      {
        "length": 32,
        "start": 643
      }
    ],
    "70": [
      {
        "length": 32,
        "start": 265
      },
      {
        "length": 32,
        "start": 412
      }
    ]
  },
  "inputSourceName": "project/contracts/FundMe.sol",
  "buildInfoId": "solc-0_8_33-d536e97a613343d7a1aa76a8c6ade2402a94b317"
}