{
  "_format": "hh3-artifact-1",
  "contractName": "FundMe",
  "sourceName": "contracts/FundMe.sol",
  "abi": [
    {
      "inputs": [
        {
          "internalType": "address",
          "name": "priceFeedAddress",
          "type": "address"
        }
      ],
      "stateMutability": "nonpayable",
      "type": "constructor"
    },
    {
      "inputs": [],
      "name": "NotOwner",
      "type": "error"
    },
    {
      "stateMutability": "payable",
      "type": "fallback"
    },
    {
      "inputs": [],
      "name": "MINIMUM_USD",
      "outputs": [
        {
          "internalType": "uint256",
          "name": "",
          "type": "uint256"
        }
      ],
      "stateMutability": "view",
      "type": "function"
    },
    {
      "inputs": [
        {
          "internalType": "address",
          "name": "",
          "type": "address"
        }
      ],
      "name": "addressToAmountFunded",
      "outputs": [
        {
          "internalType": "uint256",
          "name": "",
          "type": "uint256"
        }
      ],
      "stateMutability": "view",
      "type": "function"
    },
    {
      "inputs": [],
      "name": "fund",
      "outputs": [],
      "stateMutability": "payable",
      "type": "function"
    },
    {
      "inputs": [
        {
          "internalType": "uint256",
          "name": "",
          "type": "uint256"
        }
      ],
      "name": "funders",
      "outputs": [
        {
          "internalType": "address",
          "name": "",
          "type": "address"
        }
      ],
      "stateMutability": "view",
      "type": "function"
    },
    {
      "inputs": [],
      "name": "i_owner",
      "outputs": [
        {
          "internalType": "address",
          "name": "",
          "type": "address"
        }
      ],
      "stateMutability": "view",
      "type": "function"
    },
    {
      "inputs": [],
      "name": "i_priceFeed",
      "outputs": [
        {
          "internalType": "contract AggregatorV3Interface",
          "name": "",
          "type": "address"
        }
      ],
      "stateMutability": "view",
      "type": "function"
    },
    {
      "inputs": [],
      "name": "withdraw",
      "outputs": [],
      "stateMutability": "nonpayable",
      "type": "function"
    },
    {
      "stateMutability": "payable",
      "type": "receive"
    }
  ],
  "bytecode": "0x60c060405234801561000f575f5ffd5b506040516111f63803806111f6833981810160405281019061003191906100fd565b3373ffffffffffffffffffffffffffffffffffffffff1660808173ffffffffffffffffffffffffffffffffffffffff16815250508073ffffffffffffffffffffffffffffffffffffffff1660a08173ffffffffffffffffffffffffffffffffffffffff168152505050610128565b5f5ffd5b5f73ffffffffffffffffffffffffffffffffffffffff82169050919050565b5f6100cc826100a3565b9050919050565b6100dc816100c2565b81146100e6575f5ffd5b50565b5f815190506100f7816100d3565b92915050565b5f602082840312156101125761011161009f565b5b5f61011f848285016100e9565b91505092915050565b60805160a05161109f6101575f395f81816101a8015261051f01525f81816102db0152610543015261109f5ff3fe608060405260043610610073575f3560e01c8063957b89561161004d578063957b895614610108578063b60d428814610132578063dba6335f1461013c578063dc0d3dff1461016657610082565b80633ccfd60b1461008c5780633e47d6f3146100a25780636b69a592146100de57610082565b36610082576100806101a2565b005b61008a6101a2565b005b348015610097575f5ffd5b506100a06102d9565b005b3480156100ad575f5ffd5b506100c860048036038101906100c3919061074c565b6104fb565b6040516100d5919061078f565b60405180910390f35b3480156100e9575f5ffd5b506100f2610510565b6040516100ff919061078f565b60405180910390f35b348015610113575f5ffd5b5061011c61051d565b6040516101299190610803565b60405180910390f35b61013a6101a2565b005b348015610147575f5ffd5b50610150610541565b60405161015d919061082b565b60405180910390f35b348015610171575f5ffd5b5061018c6004803603810190610187919061086e565b610565565b604051610199919061082b565b60405180910390f35b5f6101d67f00000000000000000000000000000000000000000000000000000000000000003461059f90919063ffffffff16565b90506802b5e3af16b1880000811015610224576040517f08c379a000000000000000000000000000000000000000000000000000000000815260040161021b906108f3565b60405180910390fd5b5f33908060018154018082558091505060019003905f5260205f20015f9091909190916101000a81548173ffffffffffffffffffffffffffffffffffffffff021916908373ffffffffffffffffffffffffffffffffffffffff1602179055503460015f3373ffffffffffffffffffffffffffffffffffffffff1673ffffffffffffffffffffffffffffffffffffffff1681526020019081526020015f205f8282546102cf919061093e565b9250508190555050565b7f000000000000000000000000000000000000000000000000000000000000000073ffffffffffffffffffffffffffffffffffffffff163373ffffffffffffffffffffffffffffffffffffffff161461035e576040517f30cd747100000000000000000000000000000000000000000000000000000000815260040160405180910390fd5b5f5f90505b5f805490508110156103f8575f60015f5f848154811061038657610385610971565b5b905f5260205f20015f9054906101000a900473ffffffffffffffffffffffffffffffffffffffff1673ffffffffffffffffffffffffffffffffffffffff1673ffffffffffffffffffffffffffffffffffffffff1681526020019081526020015f20819055508080600101915050610363565b505f67ffffffffffffffff8111156104135761041261099e565b5b6040519080825280602002602001820160405280156104415781602001602082028036833780820191505090505b505f908161044f9190610bd5565b505f3373ffffffffffffffffffffffffffffffffffffffff164760405161047590610c86565b5f6040518083038185875af1925050503d805f81146104af576040519150601f19603f3d011682016040523d82523d5f602084013e6104b4565b606091505b50509050806104f8576040517f08c379a00000000000000000000000000000000000000000000000000000000081526004016104ef90610ce4565b60405180910390fd5b50565b6001602052805f5260405f205f915090505481565b6802b5e3af16b188000081565b7f000000000000000000000000000000000000000000000000000000000000000081565b7f000000000000000000000000000000000000000000000000000000000000000081565b5f8181548110610573575f80fd5b905f5260205f20015f915054906101000a900473ffffffffffffffffffffffffffffffffffffffff1681565b5f5f6105aa836105d9565b90505f670de0b6b3a764000085836105c291906109d5565b6105cc9190610d2f565b9050809250505092915050565b5f5f8273ffffffffffffffffffffffffffffffffffffffff1663313ce5676040518163ffffffff1660e01b8152600401602060405180830381865afa158015610624573d5f5f3e3d5ffd5b505050506040513d601f19601f820116820180604052508101906106489190610d95565b60ff1690505f8373ffffffffffffffffffffffffffffffffffffffff1663feaf968c6040518163ffffffff1660e01b815260040160a060405180830381865afa158015610697573d5f5f3e3d5ffd5b505050506040513d601f19601f820116820180604052508101906106bb9190610e46565b5050509150508160126106ce9190610ebd565b600a6106da919061101f565b816106e591906109d5565b92505050919050565b5f5ffd5b5f73ffffffffffffffffffffffffffffffffffffffff82169050919050565b5f61071b826106f2565b9050919050565b61072b81610711565b8114610735575f5ffd5b50565b5f8135905061074681610722565b92915050565b5f60208284031215610761576107606106ee565b5b5f61076e84828501610738565b91505092915050565b5f819050919050565b61078981610777565b82525050565b5f6020820190506107a25f830184610780565b92915050565b5f819050919050565b5f6107cb6107c66107c1846106f2565b6107a8565b6106f2565b9050919050565b5f6107dc826107b1565b9050919050565b5f6107ed826107d2565b9050919050565b6107fd816107e3565b82525050565b5f6020820190506108165f8301846107f4565b92915050565b61082581610711565b82525050565b5f60208201905061083e5f83018461081c565b92915050565b61084d81610777565b8114610857575f5ffd5b50565b5f8135905061086881610844565b92915050565b5f60208284031215610883576108826106ee565b5b5f6108908482850161085a565b91505092915050565b5f82825260208201905092915050565b7f4469646e27742073656e6420656e6f75676821000000000000000000000000005f82015250565b5f6108dd601383610899565b91506108e8826108a9565b602082019050919050565b5f6020820190508181035f83015261090a816108d1565b9050919050565b7f4e487b71000000000000000000000000000000000000000000000000000000005f52601160045260245ffd5b5f61094882610777565b915061095383610777565b925082820190508082111561096b5761096a610911565b5b92915050565b7f4e487b71000000000000000000000000000000000000000000000000000000005f52603260045260245ffd5b7f4e487b71000000000000000000000000000000000000000000000000000000005f52604160045260245ffd5b5f81549050919050565b5f6109df82610777565b91506109ea83610777565b92508282026109f881610777565b91508282048414831517610a0f57610a0e610911565b5b5092915050565b5f8190506001806001038301049050919050565b5f819050815f5260205f209050919050565b5f82821b905092915050565b5f60088302610a777fffffffffffffffffffffffffffffffffffffffffffffffffffffffffffffffff82610a3c565b610a818683610a3c565b95508019841693508086168417925050509392505050565b5f610ab3610aae610aa984610777565b6107a8565b610777565b9050919050565b5f819050919050565b610acc83610a99565b610ae0610ad882610aba565b848454610a48565b825550505050565b5f5f905090565b610af7610ae8565b610b02818484610ac3565b505050565b5f5b82811015610b2857610b1d5f828401610aef565b600181019050610b09565b505050565b81831015610b6457610b3e82610a16565b610b4784610a16565b610b5083610a2a565b818101610b5f83850382610b07565b505050505b505050565b68010000000000000000821115610b8357610b8261099e565b5b610b8c816109cb565b828255610b9a838284610b2d565b505050565b5f81519050919050565b5f610bb48251610711565b80915050919050565b5f819050602082019050919050565b5f819050919050565b610bde82610b9f565b67ffffffffffffffff811115610bf757610bf661099e565b5b610c018183610b69565b610c0a83610bbd565b610c1383610a2a565b600183045f5b81811015610c50575f610c2b85610ba9565b610c3481610bcc565b8092506020870196505050808285015550600181019050610c19565b50505050505050565b5f81905092915050565b50565b5f610c715f83610c59565b9150610c7c82610c63565b5f82019050919050565b5f610c9082610c66565b9150819050919050565b7f4661696c656420746f2063616c6c0000000000000000000000000000000000005f82015250565b5f610cce600e83610899565b9150610cd982610c9a565b602082019050919050565b5f6020820190508181035f830152610cfb81610cc2565b9050919050565b7f4e487b71000000000000000000000000000000000000000000000000000000005f52601260045260245ffd5b5f610d3982610777565b9150610d4483610777565b925082610d5457610d53610d02565b5b828204905092915050565b5f60ff82169050919050565b610d7481610d5f565b8114610d7e575f5ffd5b50565b5f81519050610d8f81610d6b565b92915050565b5f60208284031215610daa57610da96106ee565b5b5f610db784828501610d81565b91505092915050565b5f69ffffffffffffffffffff82169050919050565b610dde81610dc0565b8114610de8575f5ffd5b50565b5f81519050610df981610dd5565b92915050565b5f819050919050565b610e1181610dff565b8114610e1b575f5ffd5b50565b5f81519050610e2c81610e08565b92915050565b5f81519050610e4081610844565b92915050565b5f5f5f5f5f60a08688031215610e5f57610e5e6106ee565b5b5f610e6c88828901610deb565b9550506020610e7d88828901610e1e565b9450506040610e8e88828901610e32565b9350506060610e9f88828901610e32565b9250506080610eb088828901610deb565b9150509295509295909350565b5f610ec782610777565b9150610ed283610777565b9250828203905081811115610eea57610ee9610911565b5b92915050565b5f8160011c9050919050565b5f5f8291508390505b6001851115610f4557808604811115610f2157610f20610911565b5b6001851615610f305780820291505b8081029050610f3e85610ef0565b9450610f05565b94509492505050565b5f82610f5d5760019050611018565b81610f6a575f9050611018565b8160018114610f805760028114610f8a57610fb9565b6001915050611018565b60ff841115610f9c57610f9b610911565b5b8360020a915084821115610fb357610fb2610911565b5b50611018565b5060208310610133831016604e8410600b8410161715610fee5782820a905083811115610fe957610fe8610911565b5b611018565b610ffb8484846001610efc565b9250905081840481111561101257611011610911565b5b81810290505b9392505050565b5f61102982610777565b915061103483610777565b92506110617fffffffffffffffffffffffffffffffffffffffffffffffffffffffffffffffff8484610f4e565b90509291505056fea26469706673582212203e8193cec1a086e5741c0674922a9744a0546de119a5d4758ae77cb914b6931264736f6c63430008210033",
  "linkReferences": {},
  "deployedLinkReferences": {},
  "immutableReferences": {
    "333": [
      {
        "length": 32,
        "start": 731
      },
      {
        "length": 32,
        "start": 1347
      }
    ],
    "336": [
      {
        "length": 32,
        "start": 424
      },
      {
        "length": 32,
        "start": 1311
      }
    ]
  },
  "inputSourceName": "project/contracts/FundMe.sol",
  "buildInfoId": "solc-0_8_33-5713639f0ab6b550f3b4d4bc562a20d23d804c54"
}